:060000000A128A110C280F
:10000800FE00030EF0000A08F1000A168A11332CCC
:100018000A128A110F288313B930FD000830FE0038
:10002800F430FF00A03084000A168A11C7210A1292
:100038008A116C30FD001130FE002030FF00663060
:1000480084000A168A11C7210A128A11B93084005D
:10005800D1300A168A112D210A128A112030840003
:1000680045300A168A112D210A128A11FA01FB015C
:1000780083010A128A11402883160313D801D80A6B
:100088003608D2003708D3003808D400D5010A163C
:100098008A116B240A128A11CE30F7008830F800D2
:1000A80000300A168A1175230A128A11D230831277
:1000B8000313C6000030C700C8010A168A114F276B
:1000C8000A128A110A30F6000030F7000A168A115F
:1000D8009E210A128A117308F9007208F8000A169C
:1000E8008A1120250A128A11760883160313D7006D
:1000F80064305702031C8128822884286330D70083
:100108000A128A15DC210A128A1183160313D900F0
:100118003E305906031D91289228AE28E830F20097
:100128008830F300D2300A168A115F220A128A1127
:10013800D23083120313C6000030C700831603139E
:10014800570883120313C8000A168A114F270A1288
:100158008A115B2B3D305906031DB328B428E628C5
:10016800063055020318B928BA28E628550883121C
:100178000313E3006307A03E840083130008F20022
:10018800840A00088403F300D2300A168A115F2219
:100198000A128A110130FF007F0883160313D5075E
:1001A800D23083120313C6000030C700831603132E
:1001B800570883120313C8000A168A114F270A1218
:1001C8008A115B2B3B305906031DEB28EC280829C4
:1001D80055080319F028F12808290130D5025508D7
:1001E80083120313E3006307A03E8400831300080F
:1001F800F200840A00088403F300D2300A168A1138
:100208005F220A128A11D4283730590603190D299A
:100218000E2914292F305906031D1329142948299A
:100228005803031D1829192948290A168A118D21EE
:100238000A128A111430F6008830F7008030F8006E
:100248000A168A11A2230A128A11F201C6300A1666
:100258008A111E220A128A11F2010F300A168A1117
:100268001E220A128A11A53083120313E300E30B3E
:100278003B293E29023083160313D8006030D6008C
:100288008312031312155B2B80305906031D4D2969
:100298004E29F62903305806031D53295429F629F7
:1002A800E5290A168A118D210A128A11F230F60000
:1002B8008730F7008030F8000A168A11A2230A1244
:1002C8008A11083083160313D8002030D6005B2B20
:1002D8000A168A118D210A128A110930831603130E
:1002E800D8004030D6005B2B0A168A118D210A12DD
:1002F8008A11E23083120313C6008830C7008316C0
:100308000313570883120313C8000A168A114F27CC
:100318000A128A11E130F6008730F7008030F800C1
:100328000A168A11A2230A128A110330F6008830AD
:10033800F700C030F8000A168A11A2230A128A119F
:100348000A128A1565220A128A113330831203139E
:10035800E500BB30E400DF30E300E30BB129E40B38
:10036800B129E50BB129033083160313D8005030A7
:10037800D6005B2B0A168A118D210A128A111130B8
:1003880083160313D80042290A168A118D210A12EE
:100398008A11F13083120313C6008830C700831610
:1003A8000313570883120313C8000A168A114F272C
:1003B8000A128A11123083160313D8003030D6007F
:1003C8005B2B5108003A03195529013A03196C2986
:1003D800033A03197829013A0319BE29073A031980
:1003E800C8295B2B80305906031DFB29FC290A2AE2
:1003F80008305806031D012A022A0A2A0330D800A9
:100408000A168A118D210A128A115B2B803059062F
:10041800031D0F2A102A172A11305806031D152A02
:10042800162A172A022A90305906031D1C2A1D2A4B
:10043800262A03305806031D222A232A262AD801F1
:10044800D80A042A5B2B570883120313CF00D23033
:100458000A168A11A1260A128A11742B831603130D
:10046800D801D80A831203131211F2010C300A16AC
:100478008A111E220A128A11A53083120313E3007F
:10048800E30B442A472A742B033083160313D8003E
:100498007030D600831203131215F2010C300A16BD
:1004A8008A111E220A128A11A53083120313E3004F
:1004B800E30B5C2A5F2A6628560883120313CF00D1
:1004C8008316031359080A128A155E260A128A111E
:1004D8000A3A0319322A013A0319482A742B0A16D0
:1004E8008A118D210A128A1183160313D801D80A9A
:1004F800831203131211742B83160313D101742B67
:1005080083160313D101D10A742B02308316031307
:10051800D100742B033083160313D100742B0430DD
:1005280083160313D100742B560883120313CF00CC
:100538008316031359080A128A1146260A128A11C9
:10054800003A0319802A013A0319842A033A031945
:10055800892A013A03198E2A073A0319932A0E3A6F
:100568000319732A742B560883120313CF008316BA
:10057800031359080A128A1581230A128A11742B47
:1005880056080A168A111F230A128A110C3A031DEB
:10059800CE2ACF2ADE2A1A3083120313E5005E30F2
:1005A800E4006D30E300E30BD72AE40BD72AE50B10
:1005B800D72ADE2A4030831603135606031DE52A80
:1005C800E62AF72ADF3083120313C6008830C700F3
:1005D80083160313570883120313C8000A168A11D7
:1005E8004F270A128A11033083160313D80050309C
:1005F800D6000A168A118D210A128A11742B1A3014
:1006080083120313E5005E30E4006D30E300E30B72
:100618000B2BE40B0B2BE50B0B2B122BEB30831264
:100628000313C6008830C7008316031357088312C4
:100638000313C8000A168A114F270A128A11F72ACB
:1006480083160313D801D80A5030D600742B5608E5
:1006580083120313CF008316031359080A128A154D
:10066800C1240A128A110A3A0319242B063A0319DB
:10067800032B742B560883120313CF00831603131E
:1006880059080A128A117C230A128A110C3A031D8E
:100698004E2B4F2B742B033083160313D800503086
:1006A800D6000A168A118D210A128A116628831625
:1006B80003135808013A0319272A033A0319602A31
:1006C800013A0319982A0B3A0319B72A013A031970
:1006D800C42A183A03192B2B033A03193E2B742BFF
:1006E800803083160313D60066280A128A110C2854
:1006F80083120313D30030304F06031D842B852B40
:10070800FC2B0A168A11AE250A128A110F308312A1
:1007180003133F05D0003E080F39D100D20151081C
:10072800F2005208F3000A30F4000030F5000A160F
:100738008A1182220A128A1183120313500872073F
:10074800A0000030031801307307A1000F304105E5
:10075800D00040080F39D100D2015108F2005208E8
:10076800F3000A30F4000030F5000A168A118222DC
:100778000A128A118312031350087207A20000306C
:10078800031801307307A3000F304305D000420857
:100798000F39D100D2015108F2005208F3000A3093
:1007A800F4000030F5000A168A1182220A128A1112
:1007B8008312031350087207A40000300318013095
:1007C8007307A5002530F6008830F7008030F80060
:1007D8000A168A11A2230A128A11023083120313FD
:1007E800AB000030AC00B901B801B7013F30D3000D
:1007F80037080319002C012C122D0D30452E2B081B
:10080800D0005007203E8400013083138007840AFB
:100818000318800A1D2D0330C8000030C9002B08BA
:10082800013ECA002C080318013E003ECB000A1600
:100838008A11A5240A128A11831203134908AC00ED
:100848004808AB001D2D0A168A11AE250A128A1116
:100858000A3083120313C8000030C9002108CB00F6
:100868002008CA000A168A11A5240A128A118312BE
:1008780003134808D0004908D1000A30F6000030B8
:10088800F7002108F9002008F8000A168A11202527
:100898000A128A11760883120313D2000330031058
:1008A800D20DFF3E031D532C0310520D5004D400EB
:1008B8002608C0395404A6002608F30002300A1698
:1008C8008A1100220A128A110A3083120313C800FF
:1008D8000030C9002308CB002208CA000A168A1172
:1008E800A5240A128A11831203134808D000490864
:1008F800D1000A30F6000030F7002308F90022087A
:10090800F8000A168A1120250A128A11760883121D
:100918000313D20003300310D20DFF3E031D8F2CAA
:100928000310520D5004D400270880395404A7003E
:100938002708F30001300A168A1100220A128A11C8
:100948000A3083120313C8000030C9002508CB0001
:100958002408CA000A168A11A5240A128A118312C9
:1009680003134808D0004908D1000A30F6000030C7
:10097800F7002508F9002408F8000A168A1120252E
:100988000A128A11760883120313D2000330031067
:10099800D20DFF3E031DCB2C0310520D5004D40082
:1009A800280880395404A8002808F30000300A16E3
:1009B8008A1100220A128A11F20101300A168A11DC
:1009C8001E220A128A116330F6008830F70082303E
:1009D800F8000A168A11A2230A128A118A30F60030
:1009E8008830F700C230F8000A168A11A2230A12CA
:1009F8008A1183120313B701B70A1A30831203133B
:100A0800D2005E30D1006D30D000D00B092DD10B53
:100A1800092DD20B092D102D0C30452E53082F3AD5
:100A280003190F2C183A0319032CB73A0319272C6A
:100A38001D2D00302102183003192002031C252D1A
:100A4800262D282DA001A101003023023C300319D6
:100A58002202031C302D312D332DA201A3010030B9
:100A680025023C3003192402031C3B2D3C2D3E2D4E
:100A7800A401A5010130FF007F08B907023039063B
:100A8800031D472D482D9A2DB901380803194D2DFE
:100A98004F2D0130502D0030B80038080319552D5E
:100AA800562D9A2D8A2D3330F6008730F700C03046
:100AB800F8000A168A11A2230A128A110530831235
:100AC8000313D2000F30D100F030D000D00B6A2DC4
:100AD800D10B6A2DD20B6A2D00009A2D3330F60007
:100AE8008730F700C330F8000A168A11A2230A12C9
:100AF8008A11622D3330F6008730F700C630F800CF
:100B08000A168A11A2230A128A11622D2C08003AA9
:100B180003198F2D9A2D2B08003A0319572D013AE6
:100B28000319722D033A03197E2D9A2DC0308312B2
:100B38000313CD000A30F6000030F7002108F90051
:100B48002008F8000A168A1120250A128A11760848
:100B5800303E0A168A11D6210A128A11C130831230
:100B68000313CD000A30C8000030C9002108CB00AB
:100B78002008CA000A168A11A5240A128A118312AB
:100B880003134808303E0A168A11D6210A128A1120
:100B9800C23083120313CD003A300A168A11D621C7
:100BA8000A128A11C33083120313CD000A30F600EB
:100BB8000030F7002308F9002208F8000A168A1105
:100BC80020250A128A117608303E0A168A11D62183
:100BD8000A128A11C43083120313CD000A30C800E8
:100BE8000030C9002308CB002208CA000A168A115F
:100BF800A5240A128A11831203134808303E0A16E4
:100C08008A11D6210A128A11C53083120313CD0026
:100C18003A300A168A11D6210A128A11C63083126E
:100C28000313CD000A30F6000030F7002508F9005C
:100C38002408F8000A168A1120250A128A11760853
:100C4800303E0A168A11D6210A128A11C730831239
:100C58000313CD000A30C8000030C9002508CB00B6
:100C68002408CA000A168A11A5240A128A118312B6
:100C780003134808303E0A168A11D6210A128A112F
:100C8800012C080083120313D2006B08031D4D2E9C
:100C98004E2E502E0A30FE2E70304F06031D552E54
:100CA800562E5E2E0F30EB00BC010A168A118D21DC
:100CB8000A128A113730831203135206031D652E58
:100CC800662E752E3C0803196A2E6B2E752E0F3072
:100CD800EB000130BC020A168A118D210A128A1112
:100CE800882E2F305206031D7A2E7B2E882E043034
:100CF8003C020318802E812E882E0F30EB00013025
:100D0800FF007F08BC076F2E0430831203133C02D8
:100D180003188F2E902EC32E8030CD002A300A164D
:100D28008A11D6210A128A11831203133C08D000B3
:100D38005007AC3E840083130008F600840A0008BC
:100D48008403F7008230F8000A168A11A2230A12D7
:100D58008A11831203133C08D0005007AE3E84006A
:100D680083130008F600840A00088403F700C230E1
:100D7800F8000A168A11A2230A128A11FB2E0430DF
:100D88003C06031DC82EC92EFB2E3C08D000500778
:100D9800AA3E840083130008F600840A000884032E
:100DA800F7008230F8000A168A11A2230A128A1163
:100DB800831203133C08D0005007AC3E8400831311
:100DC8000008F600840A00088403F700C230F8001F
:100DD8000A168A11A2230A128A11C0308312031339
:100DE800CD002A300A168A11D6210A128A118312D6
:060DF80003133C08080093
:100E000023342034203420342034203454346934C2
:100E10006D346534203420342034203420342034A0
:100E2000203420344534763465346E3474342034C0
:100E3000203420342034203420342034533470348F
:100E40006534653464340034203420342034203454
:100E500020342034203420342034203420342034F2
:100E60002034203420342034203400344E346F3485
:100E700020346C346F346734733420346134763406
:100E8000613469346C34613462346C3465340034F8
:100E900020342034203420344E346F3420346C34E9
:100EA0006F346734733420342034203420342034B9
:100EB000003445346E3474346534723420346E3406
:100EC0006534773420347034773464343A342034E1
:100ED000203400342034573472346F346E34673425
:100EE0002034503461347334733477346F34723453
:100EF00064342034003420342034543449344D34A4
:100F000045342034203420342034203445342034F7
:100F100020345334503400345034613473347334D7
:100F200077346F3472346434203463346834613419
:100F30006E34673465346434003459346F34753436
:100F400020344134723465342034203442346C34DB
:100F50006F3463346B346534643400345234653434
:100F60002D3465346E3474346534723420346E3408
:100F7000653477342034703477346434003450343A
:100F800061347334733477346F347234643420349E
:100F900020346334683461346E346734653400342B
:100FA0005734613469347434203466346F347234A5
:100FB0002E342E342E34313435346D3469346E345D
:100FC00000342034203420342034203420344F3472
:100FD000703465346E34203420342034203420348E
:100FE0002034003420342034203420342034203481
:100FF0004C346F346734733420342034203420343C
:101000002034203400342034203420342034203460
:10101000433475347434653463346F346D34203440
:101020002034203420340034203445346E34743479
:10103000653472342034503461347334733477340B
:101040006F347234643420340034543469346D3471
:10105000653420342834483448343A344D344D34DF
:101060003A345334533429340034433468346134CB
:101070006E346734653420347034613473347334BF
:1010800077346F347234643400342034413474342F
:10109000743465346D3470347434203452346534AF
:1010A0006D34613469346E340034733475346334B0
:1010B0006334653473347334663475346C346C342F
:1010C000793420340034543469346D346534203438
:1010D0006334683461346E346734653464340034A6
:1010E0004C346F3467347334203463346C34653477
:1010F0006134723465346434003444346F3477348A
:101100006E346C346F346134643420346C346F3436
:101110006734003453347534633463346534733462
:101120007334663475346C346C347934003473340D
:1011300075346334633465347334733466347534AE
:101140006C346C347934003443346C346534613439
:10115000723420346C346F34673400345334653463
:1011600074342034743469346D3465340034563446
:1011700069346534773420346C346F346734003428
:101180004C346F346734733420343A34003466346A
:10119000613469346C34653464340034313430344F
:1011A000313430340034473431340034473432344D
:1011B0000034473433340034473434340034433457
:1011C0004C34003444344C34003447344E3400340E
:1011D00043344F34003443345034003447345234B1
:1011E0000034533454340034E5348834EE348834D5
:1011F000D3348834D6348834D9348834DC348834D1
:10120000B7348834A43488347D3488343534883411
:10121000AE3488344F344E340034F701F31F1129B3
:1012200012291929F209F309F20A0319F30AF7013D
:10123000F70AF51F1C291D292629F409F509F40AC6
:101240000319F50A0130FF007F08F706F801F901DC
:101250007208730403192D292E296529F601F60A4F
:101260003C2901300310F20DF30DFF3E031D32291E
:101270000130FF007F08F607F31F3F29402931297D
:1012800001300310F80DF90DFF3E031D41297308CD
:101290007502031D4D2972087402031C502951293F
:1012A00058297208F4027308031CF503F502781438
:1012B00001300310F30CF20CFF3E031D59290130DD
:1012C000F602031D64296529402977080319692955
:1012D0006A296F29F809F909F80A0319F90A79083E
:1012E000F3007808F2000800003083120313C900ED
:1012F0000030C8000030C7000030C6007508740414
:1013000073047204031985298629D329CA01CA0ADC
:1013100096290130C5000310F20DF30DF40DF50D03
:10132000C50B8B290130FF007F08CA07F51F9929DB
:101330009A2989290130C5000310C60DC70DC80DB3
:10134000C90DC50B9C2975087902031DB1297408C4
:101350007802031DB12973087702031DB1297208B1
:101360007602031CB429B529C4297208F602730851
:10137000031C730FF7027408031C740FF80275083E
:10138000031C750FF902461401300310F50CF40C20
:10139000F30CF20CFF3E031DC5290130CA02031DE8
:1013A000D229D3299A294908F5004808F4004708AA
:1013B000F3004608F20008008312031306083F39C1
:1013C000F2003F3072060319E629E729F3297B086A
:1013D000031DEB29EC29F329FB01FB0AB501B6013A
:1013E0007208FA000E2A3F307206031DF829F92907
:1013F0000E2A7B03031DFD29FE290E2AFB01360858
:10140000803AFF0080307F02031D082A0F3035022A
:1014100003180B2A0C2A0E2A7A08642A7B03031D60
:10142000122A132A2B2A831203133608803AFF004C
:1014300080307F02031D1E2A103035020318212A36
:10144000222A2B2A013083120313B5070318B60A88
:101450000030B607632A7B03031D2F2A302A472A50
:1014600010308312031335063604031D382A392A37
:10147000472A37307206031D3E2A3F2A472A013089
:10148000B5070318B60A0030B6078030642A7B031C
:10149000031D4B2A4C2A632A10308312031335068E
:1014A0003604031D542A552A632A2F307206031D61
:1014B0005A2A5B2A632A0130B5070318B60A00309E
:1014C000B6079030642A3F300800FF3083120313C0
:1014D000D300FF30D400CF01660A031D732A670AC8
:1014E000031D732A742A7E2A3630F3008730F400F5
:1014F0000A168A11A7220A128A15802BC030F3001F
:101500008830F4000A168A11A7220A128A150A30B6
:101510000A168A115D210A128A150030F3008730FD
:10152000F4000A168A11A7220A128A150A300A162E
:101530008A115D210A128A150D300A168A115D2161
:101540000A128A15702B831203135308013ED1002F
:1015500054080318013E003ED2000130D30703189F
:10156000D40A0030D407D501D6010A30F200831224
:10157000031351080A168A11EB210A128A158312E5
:1015800003135507053ED0005508453E840050081A
:101590000A168A114A230A128A1583138000013021
:1015A00083120313D5070318D60A0030D60756084E
:1015B000803AFF0080307F02031DE02A0A30550286
:1015C000031CE32AE42AB52A831203135308303E8E
:1015D0000A168A115D210A128A153230F30087300B
:1015E000F4000A168A11A7220A128A15831203131D
:1015F00045080A168A115D210A128A1583120313FF
:1016000046080A168A115D210A128A153A300A160E
:101610008A115D210A128A158312031347080A16DC
:101620008A115D210A128A158312031348080A16CB
:101630008A115D210A128A153A300A168A115D2133
:101640000A128A158312031349080A168A115D21AA
:101650000A128A15831203134A080A168A115D2199
:101660000A128A152F30F3008730F4000A168A1107
:10167000A7220A128A15831203134B080A168A112D
:101680005D210A128A15831203134C080A168A1167
:101690005D210A128A152930F3008730F4000A16FA
:1016A0008A11A7220A128A15831203134D080A16FB
:1016B0008A115D210A128A15831203134E080A1635
:1016C0008A115D210A128A150A300A168A115D21D3
:1016D0000A128A150D300A168A115D210A128A151E
:1016E000831203135408803AF6006708803A7602A2
:1016F000031D7C2B66085302031C7F2B802BA32A1F
:10170000080083120313E000DC01660A031D8C2B22
:10171000670A031D8C2B8D2BA42B2530F6008730F8
:10172000F7008030F8000A168A11A2230A128A15DF
:101730004830F6008730F700C030F8000A168A11EA
:10174000A2230A128A15C02C20304F06031DA92B94
:10175000AA2BAC2BB101B20137306006031DB12BAF
:10176000B22BD42B3208803AD0006708803A50025E
:10177000031DBC2B660831020318BF2BC02BD42BD2
:10178000013083120313B1070318B20A0030B20705
:101790002530F6008730F700C030F8000A168A11AD
:1017A000A2230A128A15FC2B2F3083120313600622
:1017B000031DDB2BDC2BFC2B3208803AFF00803032
:1017C0007F02031DE52B01303102031CE82BE92BBE
:1017D000FC2BFF3083120313B1070318B20AFF304A
:1017E000B2072530F6008730F700C030F8000A163F
:1017F0008A11A2230A128A15831203133208DE000B
:101800003108DD00E101E2010A30F2008312031326
:101810005D080A168A11EB210A128A158312031336
:101820006107053EDF006108523E84005F080A162A
:101830008A114A230A128A15831380000130831209
:101840000313E1070318E20A0030E2076208803A56
:10185000FF0080307F02031D2F2C0A306102031C21
:10186000322C332C042CC03083120313CD003108EA
:10187000303E0A168A11D6210A128A15C230831206
:101880000313CD0052080A168A11D6210A128A15AE
:10189000C33083120313CD0053080A168A11D621D0
:1018A0000A128A15C43083120313CD003A300A1687
:1018B0008A11D6210A128A15C53083120313CD006E
:1018C00054080A168A11D6210A128A15C6308312C4
:1018D0000313CD0055080A168A11D6210A128A155B
:1018E000C73083120313CD003A300A168A11D6216D
:1018F0000A128A15C83083120313CD0056080A163F
:101900008A11D6210A128A15C93083120313CD0019
:1019100057080A168A11D6210A128A15CB3083126B
:101920000313CD0058080A168A11D6210A128A1507
:10193000CC3083120313CD0059080A168A11D62120
:101940000A128A15CE3083120313CD005A080A16E4
:101950008A11D6210A128A15CF3083120313CD00C3
:101960005B080A168A11D6210A128A1504308312DE
:101970000313D1003D30D000D00BBC2CD10BBC2CBC
:10198000080083120313D3000130AD070318AE0A19
:101990000030AE0706302D062E04031DD02CD12CAE
:1019A000DB2CAD01AE013A080319D72CD92C01303C
:1019B000DA2C0030BA0060304F06031DE02CE12C19
:1019C000F62C3130F2008730F3000430F4000030A0
:1019D000F500C4300A168A1166250A128A15831288
:1019E0000313AF01B001BB010530EB006B08031D11
:1019F000FA2CFB2CFD2C0A305D2E3B080319012D1F
:101A0000022D042D0D305D2E3008803AFF0080300D
:101A10007F02031D0D2D04302F020318102D112DF0
:101A2000372D5930F6008730F7008030F8000A165D
:101A30008A11A2230A128A15831203133A08031D7E
:101A4000222D232D2D2D2F08C03ECD00FF300A164C
:101A50008A11D6210A128A15D32D2F08C03ECD0037
:101A600020300A168A11D6210A128A15D32D831224
:101A700003133008803AFF0080307F02031D422D9F
:101A800004302F02031C452D462DD32D8312031342
:101A90003008803AFF0080307F02031D512D08304E
:101AA0002F020318542D552DD32DAE30F60087305C
:101AB000F7008030F8000A168A11A2230A128A154C
:101AC000831203133A08031D662D672D712D2F080D
:101AD000C03ECD00FF300A168A11D6210A128A159F
:101AE000D32D2F08C03ECD0020300A168A11D621F2
:101AF0000A128A15D32D2F08C43E84003030831378
:101B000080002F08C03ECD002A300A168A11D62147
:101B10000A128A15013083120313AF070318B00AA3
:101B20000030B0070530EB0004302F063004031DF1
:101B30009A2D9B2DDD2D2430F6008730F700C03024
:101B4000F8000A168A11A2230A128A15DD2D2F0821
:101B5000C43E84003130831380002F08C03ECD0086
:101B60002A300A168A11D6210A128A1501308312E8
:101B70000313AF070318B00A0030B0070530EB00BD
:101B800004302F063004031DC62DC72DDD2D243053
:101B9000F6008730F700C030F8000A168A11A22339
:101BA0000A128A15DD2D8312031353082F3A0319E5
:101BB0007B2D183A0319A72DDD2D0830831203134E
:101BC0002F063004031DE52DE62D022DC830F2004E
:101BD0000430F3000030F400C4300A168A11FB25EB
:101BE0000A128A1572087304031DF72DF82D3F2E73
:101BF00083160313CC01C830F7000030F800003022
:101C00000A168A1175230A128A15013083120313EA
:101C1000AF070318B00A0030B007F20101300A160E
:101C20008A111E220A128A158C30F6008730F700BE
:101C30008030F8000A168A11A2230A128A1555303C
:101C4000F6008830F700C230F8000A168A11A22385
:101C50000A128A1583120313BB01BB0A1A308312BE
:101C60000313D2005E30D1006D30D000D00B362E81
:101C7000D10B362ED20B362E3D2E0C305D2EF201BE
:101C800001300A168A111E220A128A15BF30F60088
:101C90008730F7008030F8000A168A11A2230A1252
:101CA0008A15C730F6008830F700C530F8000A16EC
:101CB0008A11A2230A128A152A2E080083120313FE
:101CC000D90060304F06031D662E672E762E033036
:101CD000EA0083160313CD01CE01CF01D001831298
:101CE0000313BD01FF30D9000530EB006B08031D65
:101CF0007A2E7B2E7D2E0A30FF2F023083120313A3
:101D0000D2004530D100A930D000D00B852ED10BA8
:101D1000852ED20B852E3730831203135906031DEF
:101D2000922E932EB12E04303D020318982E992E38
:101D3000B12E3D08CD3E84003130831380003D0834
:101D4000C63ECD002A300A168A11D6210A128A15FB
:101D50000130FF007F0883120313BD070530EB003D
:101D6000CD2E2F305906031DB62EB72ECD2E0430A2
:101D70003D020318BC2EBD2ECD2E3D08CD3E840065
:101D80003030831380003D08C63ECD002A300A164D
:101D90008A11D6210A128A15A82E04303D06031D89
:101DA000D22ED32EFE2FDA01DB01831203135A0841
:101DB000553E84005A080A168A114A230A128A15C7
:101DC00083138000013083120313DA070318DB0A40
:101DD0000030DB075B08803AFF0080307F02031D84
:101DE000F32E04305A02031CF62EF72ED52ECD30DA
:101DF000F2000430F3000030F40055300A168A1166
:101E0000FB250A128A1572087304031D082F092F77
:101E10000B2F0B30FF2F013083120313EA026A08E5
:101E2000031D132F142F9F2F8430B3000330B400F1
:101E30000A168A118D210A128A15F2010C300A162F
:101E40008A111E220A128A15A53083120313D000AC
:101E5000D00B282F2B2F9D30F6008730F7008030D5
:101E6000F8000A168A11A2230A128A15D030F60049
:101E70008730F700C030F8000A168A11A2230A1230
:101E80008A15942F3C30F6000030F7003408F90032
:101E90003308F8000A168A1120250A128A157708D5
:101EA00083120313D4007608D300CB30CD000A3060
:101EB000F6000030F7005408F9005308F8000A163D
:101EC0008A1120250A128A157608303E0A168A11D0
:101ED000D6210A128A15CC3083120313CD000A30A2
:101EE000C8000030C9003C30F6000030F70034086C
:101EF000F9003308F8000A168A1120250A128A15FB
:101F0000770883120313CB007608CA000A168A11D9
:101F1000A5240A128A15831203134808303E0A16B4
:101F20008A11D6210A128A15831203133308340446
:101F3000031D9B2F9C2F422F0330EA00D42F0A163B
:101F40008A118D210A128A156A30F6008730F7004F
:101F50008030F8000A168A11A2230A128A15C030AE
:101F600083120313CD006A08303E0A168A11D62167
:101F70000A128A154530F6008830F700C130F800A3
:101F80000A168A11A2230A128A15663083120313D5
:101F9000D2007630D100C030D000D00BCD2FD10B85
:101FA000CD2FD20BCD2F00000A168A118D210A12D7
:101FB0008A151430F6008830F7008030F8000A16D1
:101FC0008A11A2230A128A1583120313BD01053058
:101FD000EB00F201C6300A168A111E220A128A1577
:101FE000F2010F300A168A111E220A128A15A53034
:101FF00083120313D000D00BFB2FFE2FFF300800FD
:10200000FF1B0A2883137F1883170008840A03190B
:10201000FF0A08007F087F398A000408840A031930
:04202000FF0A820031
:102234008316031306083F3886000800FF34FF3472
:10224400FF34FF3403340534831603139F178312BA
:1022540003131F14080064008001840A0406031990
:10226400003404062E290A168A1173210A168A11CB
:1022740083160313111408000A168A1173210A160F
:102284008A118316031311150800F2000A168A1125
:1022940073210A168A11720883120313930008002B
:1022A4000A168A113E210A168A110A168A11352144
:1022B4000A168A110800F2007208831203139900A7
:1022C4000C1E6529662962290C1208008316031363
:1022D4008801091189100A168A11F8260A168A112A
:1022E400080083160313141978297929732911080E
:1022F4001F39031D7E297F297329080083120313C4
:1023040012149214FA308316031392008C1483125D
:10231400031312150800F20101300A168A111E2255
:102324000A168A110430F7003D30F600F60B98299E
:10233400F70B98299D290800831203131F151F19F1
:10234400A429A529A1291E08F500831603131E0834
:10235400F4007508F3007408F200080000300A164F
:102364008A11F4220A168A11F60076087F39F600DB
:102374007608F30000300A168A1100220A168A1120
:1023840008007E088A007F0882000A168A11C32189
:102394000A168A118000840A04087D060319003491
:1023A400FF0A0319FE0AC72983120313CE00F201A0
:1023B4004D080A168A111E220A168A11F201F20A1F
:1023C400831203134E080A168A111E220A168A1152
:1023D4000800F400F301741CF029F129F5297208AE
:1023E400FF007F08F3070310F20D0310F40C7408C8
:1023F400031DFD29FE29ED2973080800F4000A16BF
:102404008A1135210A168A11D0300A168A114721F9
:102414000A168A1174080A168A1147210A168A11A3
:1024240073080A168A1147210A168A110A168A1194
:102434003E210A168A110800F5007218222A262A5B
:10244400831203130915292A83120313091175082A
:1024540088008914A630F300F30B2E2A000083129F
:10246400031389101B30F4009E30F300F30B382A59
:10247400F40B382A00000800F2000A168A117321AE
:102484000A168A118316031391150A168A117321E9
:102494000A168A11831203131308F3007203031D2F
:1024A400542A552A592A8316031391165C2A831633
:1024B40003139112111673080800F7007708F60049
:1024C4007308F5007208F400F20A0319F30A750898
:1024D40083120313FF00740884000A168A11002073
:1024E4000A168A11FF00760884000130F6077F0877
:1024F400831380000008031D802A812A622A0800B1
:10250400F601F701721C872A882A8E2A7408F607B6
:102514000318F70A7508F70701300310F40DF50DD9
:10252400FF3E031D8F2A01300310F30CF20CFF3E13
:10253400031D962A72087304031DA12AA22A842A61
:102544007708F3007608F2000800BC2A7408FF003C
:10255400730884000A168A1100200A168A110A16C2
:102564008A115D210A168A110130F3070318F40A4F
:102574000030F407740883120313FF007308840007
:102584000A168A1100200A168A11003A031DCB2A62
:10259400CC2AA82A0800F6000A168A1135210A1640
:1025A4008A11A0300A168A1147210A168A11760860
:1025B4000A168A1147210A168A1173080A168A1103
:1025C40047210A168A110A168A113E210A168A110F
:1025D4001430F5007930F400F40BEE2AF50BEE2AF2
:1025E400F32A0800F4000A168A1135210A168A1102
:1025F400D0300A168A1147210A168A1174080A165D
:102604008A1147210A168A110A168A1152210A16BA
:102614008A11D1300A168A1147210A168A1100300C
:102624000A168A113E220A168A11F5000A168A1120
:102634003E210A168A1175080800F9007030F60068
:102644008830F7008230F8000A168A11A2230A168D
:102654008A119730F6008830F700C230F8000A1665
:102664008A11A2230A168A1140307906031D3B2BD6
:102674003C2B482BFF3083120313E800FF30E900A2
:10268400FF30E600FF30E7000C30492B0D30080026
:10269400F4000A168A1135210A168A11A0300A1686
:1026A4008A1147210A168A1174080A168A114721C9
:1026B4000A168A110A168A1152210A168A11A130A1
:1026C4000A168A1147210A168A1100300A168A113D
:1026D4003E220A168A11F5000A168A113E210A16AC
:1026E4008A1175080800F900912B7808FF00770813
:1026F40084000A168A1100200A168A11F300790848
:102704000A168A11CD220A168A110130F707031816
:10271400F80A0030F8070130FF007F08F90778084D
:1027240083120313FF00770884000A168A1100201D
:102734000A168A11003A031DA02BA12B772B08003F
:10274400F20178080A168A111E220A168A11C02B71
:10275400F201F20A7708FF00760884000A168A114B
:1027640000200A168A110A168A111E220A168A11D4
:102774000130F6070318F70A0030F70777088312C9
:102784000313FF00760884000A168A1100200A1633
:102794008A11003A031DCF2BD02BAA2B08008312D9
:1027A4000313981718164B08CF004C08D0004D0897
:1027B400D1004E08D20004300310CF0DD00DD10D3E
:1027C400D20DFF3E031DDE2B5208F5005108F40024
:1027D4005008F3004F08F2000130F9003130F800DE
:1027E4002D30F7000030F6000A128A1574210A16FB
:1027F4008A117208FF3E831603139900080083129E
:10280400031394154B08CF004C08D0004D08D10099
:102814004E08D20002300310CF0DD00DD10DD20DD1
:10282400FF3E031D0D2C5208F5005108F40050081A
:10283400F3004F08F2000130F9003130F8002D3078
:10284400F7000030F6000A128A1574210A168A115C
:102854007208FF3E83160313930083120313941626
:102864000800831203138C1C382C392C642C01307F
:10287400A9070318AA0A0030AA07E230290604307F
:1028840003192A06031D472C482C632CA901AA010D
:102894003308340403194F2C502C562C0130B30246
:1028A4000030031CB403B40233083404031D5B2C4E
:1028B4005C2C632C6B080319602C612C632C013095
:1028C400EB028C1071088A00700E8300FE0E7E0EDF
:1028D40009000A168A1168210A168A110A168A1131
:1028E40026210A168A11003083120313CE00013008
:1028F400CD008630CC00A030CB000A168A1101240A
:102904000A168A110A168A11B0210A168A110A16A1
:102914008A111A210A168A110A168A1180210A16A6
:102924008A11003083120313CE000030CD0025300D
:10293400CC008030CB000A168A11D1230A168A11E2
:102944000B178B1708008312031348084904031953
:10295400AC2CAD2CDC2CCC01CC0ABB2C01300310EC
:10296400C80DC90DFF3E031DB12C0130FF007F08C7
:10297400CC07C91FBE2CBF2CB02C49084B02031D29
:10298400C52C48084A02031CC82CC92CCF2C480863
:10299400CA024908031CCB03CB0201300310C90C43
:1029A400C80CFF3E031DD02C0130CC02031DDB2CD0
:1029B400DC2CBF2C4B08C9004A08C80008000130B1
:1029C40083120313E8070318E90A0030E9070A3001
:1029D40068066904031DEF2CF02CF22CE801E901D0
:1029E4000A30F20068080A168A11EB210A168A11C5
:1029F400053E83120313C500B930F7000030F80018
:102A040045080A168A1175230A168A1183120313BC
:102A14006708803AFF0080307F02031D132D0930C0
:102A240066020318162D172D1F2D01308312031370
:102A3400E6070318E70A0030E707080083120313C8
:102A4400C601C701760877040319292D2A2D612DA3
:102A5400C501C50A382D01300310F60DF70DFF3EF0
:102A6400031D2E2D0130FF007F08C507F71F3B2DE6
:102A74003C2D2D2D01300310C60DC70DFF3E031D47
:102A84003D2D77087902031D492D76087802031C31
:102A94004C2D4D2D542D7608F8027708031CF903AC
:102AA400F902461401300310F70CF60CFF3E031D27
:102AB400552D0130C502031D602D612D3C2D4708A5
:102AC400F7004608F6000800F8007808F900902D91
:102AD4000130F4020030031CF503F5027308F7001B
:102AE4007208F600F20A0319F30A77088312031333
:102AF400FF00760884000A168A1100200A168A113B
:102B0400FF00790884000130F9077F0883138000EF
:102B14000008031D8E2D8F2D902D9F2D7408750494
:102B2400031D952D962D6A2D9F2D790884008313FE
:102B340080010130FF007F08F9070130F402003002
:102B4400031CF503F502740A031DAC2D750A031D5D
:102B5400AC2DAD2D972D080002300A168A11F422EF
:102B64000A168A1183120313A60001300A168A1169
:102B7400F4220A168A1183120313A70000300A16DE
:102B84008A11F4220A168A1183120313A800260854
:102B9400F60004300310F60CFF3E031DCC2D76081E
:102BA4000339303EBE0026080F39303EBF002708E7
:102BB400F60004300310F60CFF3E031DDC2D7608EE
:102BC4000739303EC00027080F39303EC1002808BD
:102BD400F60004300310F60CFF3E031DEC2D7608BE
:102BE4000739303EC20028080F39303EC300C40103
:102BF4000800F7000130F3020030031CF403F40270
:102C0400730A031D092E740A031D092E0A2E1B2E96
:102C1400F201F3014A2E0130FF007F08F70701306B
:102C2400FF007F08F2070130F3020030031CF403B5
:102C3400F40277088400831300080319222E232E3C
:102C44003C2E7208840000080319292E2A2E3C2EDB
:102C54007308740403192F2E302E3C2E720884003E
:102C64000008F500770884000008750603193B2E58
:102C74003C2E0D2E720884000008F50077088400AD
:102C84000008F60075087602F200F301031CF30352
:102C940008000A168A11AE250A168A11C230831258
:102CA4000313CD003E080A168A11D6210A168A118A
:102CB400C33083120313CD003F080A168A11D621AC
:102CC4000A168A11C43083120313CD003A300A164F
:102CD4008A11D6210A168A11C53083120313CD0036
:102CE40040080A168A11D6210A168A11C6308312A0
:102CF4000313CD0041080A168A11D6210A168A1137
:102D0400C73083120313CD003A300A168A11D62134
:102D14000A168A11C83083120313CD0042080A161A
:102D24008A11D6210A168A11C93083120313CD00E1
:102D340043080A168A11D6210A168A11080083123A
:102D44000313D2007B30F6008730F7008030F800A0
:102D54000A168A11A2230A168A110A168A114B2608
:102D64000A168A11831203135208F6000030F70082
:102D7400CB30F8000A168A11A2230A168A11CE3023
:102D840083120313CD000A30F2000030F3004F0821
:102D9400D000D1015008F4005108F5000A128A1538
:102DA4000D210A168A117208303E0A168A11D6219C
:102DB4000A168A11CF3083120313CD000A30F200B1
:102DC4000030F3004F08D000D1015008F40051083E
:102DD400F5000A168A11A7270A168A117208303ECE
:102DE4000A168A11D6210A168A110800C330F70080
:102DF400CD30F600F60BFC2EF70BFC2EF20133302F
:102E04000A168A111E220A168A111B30F7009E30F8
:102E1400F600F60B0B2FF70B0B2F0000F2013330EB
:102E24000A168A111E220A168A11A630F600F60B1B
:102E3400192F0000F20133300A168A111E220A16D5
:102E44008A11242F252F0000F20138300A168A1126
:102E54001E220A168A11A630F600F60B2F2F000048
:102E6400F20101300A168A111E220A168A11043050
:102E7400F7003D30F600F60B3D2FF70B3D2F422FA8
:102E8400F2010C300A168A111E220A168A11A63083
:102E9400F600F60B4B2F000008000A168A11AE2527
:102EA4000A168A113E30F2000030F3000630F400B6
:102EB4000030F500B9300A168A1166250A168A11FF
:102EC400831203134608F2004708F3000230F400AB
:102ED4000030F500BF300A168A1166250A168A11D9
:102EE4000A30F2000030F300831203134808C900CB
:102EF400CA014908F4004A08F5000A128A150D218E
:102F04000A168A117208303E83160313C1000A3070
:102F1400F2000030F300831203134808C900CA0109
:102F24004908F4004A08F5000A168A11A7270A1668
:102F34008A117208303E83160313C200C3010A16B5
:102F44008A11E1240A168A110800F701F51FAB2F34
:102F5400AC2FB32FF409F509F40A0319F50AF701A4
:102F6400F70AF31FB62FB72FBC2FF209F309F20AA1
:102F74000319F30A720873040319C12FC22FF12F26
:102F8400F601F60AD02F01300310F20DF30DFF3EC7
:102F9400031DC62F0130FF007F08F607F31FD32F50
:102FA400D42FC52F73087502031DDA2F720874021B
:102FB400031CDD2FDE2FE42F7208F4027308031CB8
:102FC400F503F50201300310F30CF20CFF3E031D70
:102FD400E52F0130F602031DF02FF12FD42F7708CF
:102FE4000319F52FF62FFB2FF409F509F40A031939
:0C2FF400F50A7508F3007408F2000800EC
:08400000FF3FFF3FFF3FFF3FC0
:02400E00FB3F76
:00000001FF
